:100000001628FF3FFF3F8312031322088A002108AE
:100010008200080003208A110A128000840AA10AC3
:100020000319A20AF003031D0A2808008312031310
:10003000A001831606118611061286120814831277
:100040000611861106128612081C62288230FC00F6
:10005000DD30FD00FD0B2A28FC0B2A2800000000E3
:10006000081C622806118611061286123F28061502
:100070004F2886154F2806164F2886164F28200829
:10008000003A031937282008013A031939282008B3
:10009000023A03193B282008033A03193D28A00A15
:1000A0002008033C03185528A001081C582855288F
:1000B0008230FC00DD30FD00FD0B5C28FC0B5C2871
:1000C0000000000024286328FF3FFF3FFF3FFF3F61
:02400E004A2F37
:00000001FF
